:100000000C9496070C94DD070C94DD070C94DD0727
:100010000C94DD070C94DD070C94DD070C94DD07D0
:100020000C94DD070C94DD070C94A62F0C947A3009
:100030000C94DC290C94DD070C94DD070C94DD078F
:100040000C94DD070C94DD070C94DD070C94DD07A0
:100050000C94DD070C94332A0C94DD070C94DD0717
:100060000C94DD070C94DD070C94DD070C94DD0780
:100070000C94DD070C94DD070C94DD070C94DD0770
:100080000C94DD070C94DD070C94DD070C94DD0760
:100090000C94DD070C94DD070C94DD070C94DD0750
:1000A0000C94DD070C94DD070C94DD0729001E007D
:1000B0001F0020002100220023002400250026002C
:1000C00027002D002E0000002A004C002B0000000D
:1000D00014001A000800150017001C0018000C007E
:1000E000120013002F00300031004B0039000000D7
:1000F00004001600070009000A000B000D000E00A6
:100100000F0033003400280000004E000000E10022
:100110001D001B000600190005001100100036002C
:1001200037003800E100520000004D00E000E3001D
:10013000E2000000000000002C00000000000000B1
:10014000E200E0000000500051004F0001000100FB
:100150000100010001000100010001000100010097
:100160000100010001000000010001000100000089
:100170000100010001000100010001000100010077
:100180000100010001000100010001000100000068
:100190000100010001000100010001000100010057
:1001A0000100010001000100000001000000010049
:1001B0000100010001000100010001000100010037
:1001C0000100010001000100000001000100010028
:1001D000010000000000000001000000000000001D
:1001E0000100010000000100010001000100010008
:1001F00001000100010001000100010001000100F7
:1002000001000100010000000100010001000000E8
:1002100001000100010001000100010001000100D6
:1002200001000100010001000100010001000000C7
:1002300001000100010001000100010001000100B6
:1002400001000100010001000000010000000100A8
:100250000100010001000100010001000100010096
:100260000100010001000100000001000100010087
:10027000010000000000000001000000000000007C
:100280000100010000000100010001000100010067
:100290000100010001000100010001000100010056
:1002A0000100010001000000010001000100000048
:1002B0000100010001000100010001000100010036
:1002C0000100010001000100010001000100000027
:1002D0000100010001000100010001000100010016
:1002E0000100010001000100000001000000010008
:1002F00001000100010001000100010001000100F6
:1003000001000100010001000000010001000100E6
:1003100001000000000000000100000000000000DB
:1003200001000100000001000100010001000100C6
:1003300001000100010001000100010001000100B5
:1003400001000100010000000100010001000000A7
:100350000100010001000100010001000100010095
:100360000100010001000100010001000100000086
:100370000100010001000100010001000100010075
:100380000100010001000100000001000000010067
:100390000100010001000100010001000100010055
:1003A0000100010001000100000001000100010046
:1003B000010000000000000001000000000000003B
:1003C0000100010000000100010001000100010026
:1003D0000100010001000100010001000100010015
:1003E0000100010001000000010001000100000007
:1003F00001000100010001000100010001000100F5
:1004000001000100010001000100010001000000E5
:1004100001000100010001000100010001000100D4
:1004200001000100010001000000010000000100C6
:1004300001000100010001000100010001000100B4
:1004400001000100010001000000010001000100A5
:10045000010000000000000001000000000000009A
:100460000100010000000100010001000100010085
:100470000100010001000100010001000100010074
:100480000100010001000000010001000100000066
:100490000100010001000100010001000100010054
:1004A0000100010001000100010001000100000045
:1004B0000100010001000100010001000100010034
:1004C0000100010001000100000001000000010026
:1004D0000100010001000100010001000100010014
:1004E0000100010001000100000001000100010005
:1004F00001000000000000000100000000000000FA
:1005000001000100000001000100010001000100E4
:1005100001000100010001000100010001000100D3
:1005200001000100010000000100010001000000C5
:1005300001000100010001000100010001000100B3
:1005400001000100010001000100010001000000A4
:100550000100010001000100010001000100010093
:100560000100010001000100000001000000010085
:100570000100010001000100010001000100010073
:100580000100010001000100000001000100010064
:100590000100000000000000010000000000000059
:1005A0000100010000000100010001000100010044
:1005B0000100010001000100010001000100010033
:1005C0000100010001000000010001000100000025
:1005D0000100010001000100010001000100010013
:1005E0000100010001000100010001000100000004
:1005F00001000100010001000100010001000100F3
:1006000001000100010001000000010000000100E4
:1006100001000100010001000100010001000100D2
:1006200001000100010001000000010001000100C3
:1006300001000000000000000100000000000000B8
:1006400001000100000001000100010001000100A3
:100650000100010001000100010001000100010092
:100660000100010001000000010001000100000084
:100670000100010001000100010001000100010072
:100680000100010001000100010001000100000063
:100690000100010001000100010001000100010052
:1006A0000100010001000100000001000000010044
:1006B0000100010001000100010001000100010032
:1006C0000100010001000100000001000100010023
:1006D0000100000000000000010000000000000018
:1006E0000100010000000100010001000100010003
:1006F00001000100010001000100010001000100F2
:1007000001000100010000000100010001000000E3
:1007100001000100010001000100010001000100D1
:1007200001000100010001000100010001000000C2
:1007300001000100010001000100010001000100B1
:1007400001000100010001000000010000000100A3
:100750000100010001000100010001000100010091
:100760000100010001000100000001000100010082
:100770000100000000000000010000000000000077
:100780000100010000000100010001000100010062
:100790000100010001000100010001000100010051
:1007A0000100010001000000010001000100000043
:1007B0000100010001000100010001000100010031
:1007C0000100010001000100010001000100000022
:1007D0000100010001000100010001000100010011
:1007E0000100010001000100000001000000010003
:1007F00001000100010001000100010001000100F1
:1008000001000100010001000000010001000100E1
:1008100001000000000000000100000000000000D6
:1008200001000100000001000100010001000100C1
:1008300001000100010001000100010001000100B0
:1008400001000100010000000100010001000000A2
:100850000100010001000100010001000100010090
:100860000100010001000100010001000100000081
:100870000100010001000100010001000100010070
:100880000100010001000100000001000000010062
:100890000100010001000100010001000100010050
:1008A0000100010001000100000001000100010041
:1008B0000100000000000000010000000000000036
:1008C0000100010000000100010001000100010021
:1008D0000100010001000100010001000100010010
:1008E0000100010001000000010001000100000002
:1008F00001000100010001000100010001000100F0
:1009000001000100010001000100010001000000E0
:1009100001000100010001000100010001000100CF
:1009200001000100010001000000010000000100C1
:1009300001000100010001000100010001000100AF
:1009400001000100010001000000010001000100A0
:100950000100000000000000010000000000000095
:100960000100010000000100010001000100010080
:10097000010001000100010001000100010001006F
:100980000100010001000000010001000100000061
:10099000010001000100010001000100010001004F
:1009A0000100010001000100010001000100000040
:1009B000010001000100010001000100010001002F
:1009C0000100010001000100000001000000010021
:1009D000010001000100010001000100010001000F
:1009E0000100010001000100000001000100010000
:1009F00001000000000000000100000000000000F5
:100A000001000100000001000100010001000100DF
:100A100001000100010001000100010001000100CE
:100A200001000100010000000100010001000000C0
:100A300001000100010001000100010001000100AE
:100A4000010001000100010001000100010000009F
:100A5000010001000100010001000100010001008E
:100A60000100010001000100000001000000010080
:100A7000010001000100010001000100010001006E
:100A8000010001000100010000000100010001005F
:100A90000100000000000000010000000000000054
:100AA0000100010000000100010001000000000041
:100AB000000000002A2B28000000000000000000B9
:100AC0000000000000000029000000002C1E34205F
:100AD000212224342627252E362D3738271E1F2085
:100AE0002122232425263333362E37381F040506CA
:100AF0000708090A0B0C0D0E0F101112131415160E
:100B00001718191A1B1C1D2F3130232D350405060B
:100B10000708090A0B0C0D0E0F10111213141516ED
:100B20001718191A1B1C1D2F3130354C00000000FE
:100B300000000000000000000000000000000000B5
:100B400000000000000000000000000000000000A5
:100B50007E0F00D4FFFFFFC7000000781E0F0500C6
:100B6000047F3F1F643214643214783C1E1E140A42
:100B7000052223252628292A2C2D2F3032333536DD
:100B8000383A3B3D3E4042434547494A4C4E50511E
:100B9000535557595A5C5E6062646668696B6D6F45
:100BA00071737577797B7D7F81838587898A8C8E48
:100BB00090929496989A9C9E9FA1A3A5A7A8AAAC50
:100BC000AEAFB1B3B4B6B8B9BBBCBEBFC1C2C3C58A
:100BD000C6C7C9CACBCCCDCED0D1D2D2D3D4D5D62C
:100BE000D7D7D8D9D9DADADBDBDBDCDCDCDCDCDD5F
:100BF000DDDDDDDCDCDCDCDCDBDBDBDADAD9D9D843
:100C0000D7D7D6D5D4D3D2D2D1D0CECDCCCBCAC9DA
:100C1000C7C6C5C3C2C1BFBEBCBBB9B8B6B4B3B109
:100C2000AFAEACAAA8A7A5A3A19F9E9C9A989694A4
:100C300092908E8C8A89878583817F7D7B79777579
:100C400073716F6D6B6968666462605E5C5A595758
:100C5000555351504E4C4A4947454342403E3D3B17
:100C60003A3836353332302F2D2C2A2928262523A1
:100C700022FFAA7F5540000101010101010101018C
:100C8000020202020202020202030303030303033D
:100C9000030404040404040405050505050606060A
:100CA0000606070707070708080808090909090AC7
:100CB0000A0A0B0B0B0C0C0C0D0D0D0E0E0E0F0F6C
:100CC0000F101011111112121313141415151616FA
:100CD0001717181819191A1A1B1B1C1D1D1E1E1F69
:100CE0002020212222232424252626272829292AB8
:100CF0002B2C2D2D2E2F30313232333435363738E0
:100D0000393A3B3C3D3E3F404142434445464748DB
:100D1000494A4C4D4E4F50515354555658595A5BB1
:100D20005D5E5F616264656668696B6C6D6F707251
:100D3000737577787A7B7D7E8082838587888A8CBD
:100D40008E8F91939596989A9C9EA0A2A3A5A7A9F1
:100D5000ABADAFB1B3B5B7BABCBEC0C2C4C6C9CBE8
:100D6000CDCFD1D4D6D8DBDDDFE2E4E7E9EBEEF09E
:100D7000F3F5F8FAFDFF12036B00650079006200DD
:100D80006F006100720064000000160371006D00C6
:100D90006B006200750069006C0064006500720001
:100DA00000000403090409025B00030100A0FA0922
:100DB000040000010301010009211101000122408A
:100DC000000705810308000A09040100020300006E
:100DD00000092111010001222200070582032000E1
:100DE00001070503032000010904020001030000BC
:100DF0000009211101000122B6000705840320002B
:100E00000A1201100100000008EDFE6060010001FF
:100E10000200010660FF0961A1010962150026FFB9
:100E2000009520750881020963150026FF009520B2
:100E300075089102C005010902A10185020901A1FD
:100E4000000509190129081500250195087501817A
:100E5000020501093009311581257F950275088148
:100E60000609381581257F950175088106050C0A4C
:100E700038021581257F950175088106C0C00501DE
:100E80000980A101850319012AB700150126B700C1
:100E9000950175108100C0050C0901A10185041997
:100EA000012AA002150126A002950175108100C03B
:100EB00005010906A1018505050719E029E71500C7
:100EC00025019508750181020507190029EF150014
:100ED000250195F07501810205081901290595057F
:100EE00075019102950175039101C005010906A1E3
:100EF00001050719E029E71500250195087501810D
:100F0000029501750881010507190029FF150026C2
:100F1000FF0095067508810005081901290595054A
:100F200075019102950175039101C00011241FBE46
:100F3000CFEFDAE0DEBFCDBF04B603FE27C080915D
:100F4000A1059091A205A091A305B091A4058730B9
:100F5000904BA740B04BD1F41092A1051092A2057E
:100F60001092A3051092A40514BE84B7877F84BF96
:100F70000FB6F894A8958091600088618093600016
:100F8000109260000FBEE0E0F8E3099511E0A0E0E8
:100F9000B1E0E6E1F8E602C005900D92AE3DB10782
:100FA000D9F725E0AEEDB1E001C01D92A13AB2073C
:100FB000E1F70E94642C0C94BA330C94000090E08A
:100FC00080E008950895089581E00895089581E0EE
:100FD00008950C94E40708950C94EB071F93CF93A6
:100FE000DF9300D000D00F92CDB7DEB749835A838C
:100FF0006B833091BD0389819A8131111DC06623B5
:10100000B9F02223A9F00E94D626182F682F8981D3
:101010009A810E94832669817A81812F0F900F9097
:101020000F900F900F90DF91CF911F910C94011AA8
:101030000E94AF26182FEFCF0E94D62669817A81B1
:10104000EDCFFC01262F4081518162817381848123
:101050000C94EE07CF93DF93EC0160E00E9421082F
:10106000BE01DF91CF910C94EC078F929F92AF92CB
:10107000BF92CF92DF92EF92FF920F931F936B017B
:101080007C0181E090E0A0E0B0E04C015D0104C093
:10109000880C991CAA1CBB1C4A95D2F7B501A40167
:1010A0004C015D0104C0880C991CAA1CBB1C2A952C
:1010B000D2F7482959296A297B2904C0880F991F2A
:1010C000AA1FBB1F0A95D2F78A019B010C211D2183
:1010D0002E213F21041715072607370789F48C298D
:1010E0009D29AE29BF29BC01CD011F910F91FF9011
:1010F000EF90DF90CF90BF90AF909F908F9008952A
:1011000080959095A095B0958C219D21AE21BF2111
:10111000EACF0F93382F262F60912804709129046D
:1011200080912A0490912B04042F432F0E943508AC
:101130000F910C94C1250E94822A0E9422288111BD
:1011400002C00E94C6280C94D60B0C94D80B0895AC
:101150000E94ED210E94A7082FEF84E39CE021501C
:1011600080409040E1F700C000000C94572A0F9394
:101170001F93CF93DF93EC0161E00E9421088C0163
:10118000BE010E94E717882389F1BE01C8010E94B1
:10119000E907882359F1BE01C8010E94381B882342
:1011A00029F1BE01C8010E948A1B8823F9F0BE0103
:1011B000C8010E94AD1C8823C9F0BE01C8010E946D
:1011C000F316882399F08A81882339F001158CE57C
:1011D000180751F00E3D1C4579F0CE01DF91CF91FB
:1011E0001F910F910C94E7070E94A80880E0DF91FF
:1011F000CF911F910F9108950E94C628F7CFDF92DB
:10120000EF92FF920F931F93CF93DF93E82FF0E0BD
:10121000E455F54FD490282F26952695269530E055
:10122000F901E45BF44F0491877010E0082E02C0CE
:10123000159507950A94E2F701701127F901E45C0E
:10124000F44FE490F12C082E02C0F594E7940A9430
:10125000E2F791E0E922FF24F901E45DF44FC49143
:10126000D0E002C0D595C7958A95E2F7C170DD2719
:101270000115110519F081EE0E946D1EE114F104B3
:1012800019F086EE0E946D1E8D2D0E946C1FEF28B6
:1012900019F086EE0E94FF1E012B19F081EE0E94CC
:1012A000FF1ECD2B51F08CE2DF91CF911F910F915A
:1012B000FF90EF90DF900C946C1FDF91CF911F9106
:1012C0000F91FF90EF90DF900895EF92FF920F93B0
:1012D0001F93CF93DF93EC01162F0AE088818823B8
:1012E00009F454C0813009F04EC08981813099F4ED
:1012F0007E0122E0E20EF11C8A810E946C1FE70150
:101300002196812F815050F3EFE9FFE03197F1F7FB
:1013100000C00000F7CF823041F47E0182E0E80E89
:10132000F11C8A810E946D1EEACF833041F47E0158
:10133000E2E0EE0EF11C8A810E94FF1EE0CF8430B5
:1013400011F02196DDCF2A81229690E080E0AE0157
:101350004F5F5F4F2053330B2A30310548F0019720
:1013600078F2EFE9FFE03197F1F700C00000F7CF26
:10137000089FB001099F700D1124C901860F971FA6
:101380002981EA01E4CF0E94FF08BACFDF91CF9113
:101390001F910F91FF90EF90089560E00C94650904
:1013A0000C94E60781E008950C94D209CF93C82FDE
:1013B0000E94D0098C2FCF910C94D4090895FC0180
:1013C000EE0FFF1FE45AF44F859194910895CF9347
:1013D000DF930E94011A0E94FC0AEC01811520E5AE
:1013E000920708F042C0811530E4930708F0BDC0B1
:1013F000883E910528F5803E910508F09DC0883A09
:10140000910588F4853A910508F08FC081309105E7
:1014100009F492C0009709F48FC0049708F08CC0BB
:10142000D0E0C0E089C08F3B910508F489C0805CA2
:101430009109C03CD105A0F30E94DF09EC017CC0FA
:101440008115904250F4C11581E0D80708F074C0AE
:10145000C03FD10528F3D0656FC0C11590E3D9070F
:1014600008F079C0CE019F70E7CF811525E592077E
:1014700058F5811534E5930708F0A6C0811542E5BB
:10148000940750F4C11581E5D80708F471C0DC2F2A
:10149000CC27C16FD06A50C0982F969596959E0123
:1014A00023703327C115D34508F07FC0C1E0D0E0D9
:1014B00002C0CC0FDD1F2A95E2F720E2929FC00107
:1014C0001124C82BD92B6FC0C11589E5D807A8F402
:1014D000C11598E5D90708F07CC0C11526E5D207EB
:1014E00008F09ECF8C2F0E94930BC82FD0E0DC2FEA
:1014F000CC27CC27DF71D0621FC0C1153AE5D307D6
:1015000008F46CC0CE0190568115904208F088CF47
:101510008D2F8F710E94930B90E0982F882788273A
:101520009F719C012C2BE901E6CFC55AD0E0C65A29
:10153000DE4FC881D0E0D064CE01DF91CF91089515
:10154000C85AD0E0CC0FDD1FC45DDE4F0990D881B2
:10155000C02DD464F1CFCE019927D3FF03C0EC0195
:10156000D86CEACFEC01D06CE7CFDF70D06AE4CF63
:10157000CE01E4E096958795EA95E1F783702C2FEC
:1015800026952695237090E2299F90011124382BEF
:101590008C2F8370C1E0D0E002C0CC0FDD1F8A9594
:1015A000E2F7C22BD32BDC68C7CFC1E0D0E002C08A
:1015B000CC0FDD1F2A95E2F730E2939FC001112482
:1015C000C82BD92BDA68B8CFD82FCC27C46FD06AF4
:1015D000B3CFDC2FCC27C06FD06AAECF8C2F8F70EB
:1015E0000E94930B34E0D695C7953A95E1F7CF70FA
:1015F0009C2FEC01D069A0CF82389105B1F1B0F4F5
:101600008133910509F475C048F48932910509F4D4
:1016100069C08A32910509F473C008958533910534
:1016200009F459C08933910501F10895833E91056C
:10163000A9F138F4803E9105F9F0823E910549F117
:101640000895863E9105A9F1873E9105C9F1843E32
:10165000910519F52091930521FF1FC080919205F6
:1016600084FD14C087EE90E00895209192052370C8
:10167000A1F080EE90E008952091920520FD47C0F2
:101680003091930530FF09C024FF44C090E080E012
:1016900004C02091920522FDF7CF08952091920574
:1016A00022FD3BC03091930530FDE3CF24FFF5CF01
:1016B000EDCF2091920523FFF0CF24FDE7CFD2CFCD
:1016C0002091920523FD2CC03091930531FFEECF80
:1016D00084EE90E008952091920525FFDECF89E207
:1016E00090E008952091920525FFD7CF85E390E003
:1016F00008952091920526FFD0CF8AE290E00895C8
:101700002091920526FFC9CF81E390E0089589E3F7
:1017100090E0089583EE90E0089582EE90E00895C1
:1017200086EE90E008959091920592FF06C0282FD2
:1017300028712830F9F4877F846093FF06C0282F32
:1017400028712831F1F4877E84612091930520FF70
:1017500006C0382F38713830D9F4877F816021FF77
:1017600006C0282F28712831D1F4877E816194FD2D
:10177000877E0895282F24712430F9F68B7F8860A6
:10178000DCCF282F2471243101F78B7E8861DDCFD7
:10179000382F3171313019F78E7F8860E0CF282FD4
:1017A0002171213121F78E7E8861E1CF0C94E2070F
:1017B0000C94E307E82FF0E0EE0FFF1FED57FB4F0F
:1017C000808191810895089580EA8A95F1F70895BE
:1017D00000C008950C94E40BF894E82FE295EF70A4
:1017E000F0E031A1282F2F7081E090E001C0880F38
:1017F0002A95EAF7982F9095932391A392A1892B8C
:1018000082A3789408950F931F93CF93DF9387E675
:101810000E94EC0B86E60E94EC0B86E30E94EC0B28
:1018200085E30E94EC0B84E30E94EC0BCDE5D1E054
:101830000DE611E089910E94EC0B0C171D07D1F702
:1018400010927A0410927904109284041092830406
:1018500010927C0410927B041092860410928504EE
:1018600010927E0410927D041092880410928704D6
:101870001092800410927F0410928A0410928904BE
:10188000109282041092810410928C0410928B04A6
:1018900085E00E94D50CDF91CF911F910F910C94A0
:1018A0009B08AF92BF92CF92DF92EF92FF920F937D
:1018B0001F93CF93DF930DE611E0C9E7D4E0C12C6D
:1018C000D12CEE24E394F12CF80181918F01F8944E
:1018D000E82FE295EF70F0E021A18F70A70102C020
:1018E000440F551F8A95E2F7CA01922F982B91A3B6
:1018F00092A18095892382A378940E94E80BEDE55C
:10190000F1E030E020E0B12CA12C4191A42FA29570
:10191000AF70B0E090968C9190E04F7002C09595BA
:1019200087954A95E2F780FD3BC0C701022E02C0B1
:10193000880F991F0A94E2F7A82AB92A2F5F3F4F10
:101940002031310511F7F801319780810E94EC0BAD
:1019500054E0C5120E94EA0B88819981A816B90645
:1019600011F1B982A88281E0D82AC394229685E039
:10197000C812AACF2D2D45E063E874E089E794E012
:101980000E94D60C0E94A5088D2DDF91CF911F914A
:101990000F91FF90EF90DF90CF90BF90AF900895A0
:1019A00090E080E0C9CF80E0DFCF0895FF920F93F1
:1019B0001F93CF93DF93F82E092F162FD72FC42F05
:1019C000222349F081E08093E2010E940C2A909347
:1019D000E1018093E0018091E2018823A1F08091F0
:1019E000E0019091E1010E94242A069760F0EF2D1A
:1019F000F02FA12FBD2F90E080E0D0E08C179D0745
:101A000044F01092E201DF91CF911F910F91FF906E
:101A10000895219131912D933D930196EFCF8091BF
:101A2000E90180FF12C06091090185E0689FB00163
:101A30001124759567957595679560387105A8F5BA
:101A400061157105A1F1862F089581FF09C060918C
:101A5000090185E0689FB001112475956795EDCF68
:101A60006091090182FD0AC08091E8018823D1F0CC
:101A70009091080160910901891728F085E0689F1D
:101A8000B0011124DACF869FB001112485E0869F32
:101A90009001879F300D1124692F70E0C9010E94C9
:101AA0005A32CBCF65E070E0CECF8FE7089581E06A
:101AB00008958091E90180FF0CC06091050170E0FC
:101AC00075956795759567956115710549F1862F2F
:101AD000089581FF06C06091050170E075956795D6
:101AE000F3CF6091050182FD0BC09091E70199232E
:101AF000A1F06091040180910501961738F0682FDC
:101B000070E06038710500F38FE70895899FC00188
:101B1000112470E00E945A32F4CF61E070E0D7CF18
:101B200081E00895803F31F40E940F0D81958093EC
:101B3000ED010895813F19F40E940F0DF8CF823F07
:101B400031F40E940F0D81958093EC010895833F3D
:101B500019F40E940F0DF8CF893F29F40E94590D06
:101B60008093EE0108958A3F21F40E94590D8195DA
:101B7000F7CF8B3F31F40E94590D81958093EF018F
:101B800008958C3F19F40E94590DF8CF9CE0980FEE
:101B9000953070F4845F990B21E030E001C0220F92
:101BA0008A95EAF78091EB01822B8093EB010895EF
:101BB0008D3F31F48091E90181608093E9010895BE
:101BC0008E3F21F48091E9018260F7CF8F3FB9F712
:101BD0008091E9018460F1CF4091EC01803F59F49C
:101BE0008091ED0187FF0DC01092ED0141110BC0F6
:101BF0001092E80108C0813F81F48091ED01181630
:101C00009CF3442381F08091EE019091EF01892BA8
:101C100009F05AC01092E7010895823F49F447FF46
:101C2000F0CF1092EC018091ED018111ECCFE0CF6B
:101C3000833F19F41416ACF3E4CF9091EE01893F81
:101C400029F41916F4F61092EE01DBCF8A3F19F44D
:101C500097FFD7CFF8CF9091EF018B3F29F497FFF3
:101C6000D0CF1092EF01CDCF8C3F19F41916CCF3E1
:101C7000C8CF9CE0980F953090F4845F990B21E0D9
:101C800030E0B90102C0660F771F8A95E2F7CB01F9
:101C900080959091EB0189238093EB01B2CF8D3F2A
:101CA00031F48091E9018E7F8093E901AACF8E3FC4
:101CB00021F48091E9018D7FF7CF8F3F09F0A1CF0B
:101CC0008091E9018B7FF0CF08950E940C2A9C013E
:101CD0009091EC018091ED01982B21F03093E60179
:101CE0002093E5019091EE018091EF01982B21F076
:101CF0003093E4012093E3018AEE91E00C94021DFD
:101D0000EF92FF920F931F93CF93DF9300D000D0F9
:101D100000D0CDB7DEB786E0EAEEF1E0DE01119645
:101D200001900D928A95E1F7E090EC01F090ED01C1
:101D30000091EE011091EF011092EC011092ED0173
:101D40001092EE011092EF018E2D8F2991F080916B
:101D5000E5019091E6010E94242AAC019091E801EE
:101D6000992309F43FC080910A018417150608F4ED
:101D700047C0802F812B91F08091E3019091E40185
:101D80000E94242AAC019091E701992309F477C0BD
:101D9000809106018417150608F47FC08091EC013C
:101DA0009091ED01892B9091EE01892B9091EF019B
:101DB000892B11F00E94650E86E0FE013196AAEE95
:101DC000B1E001900D928A95E1F726960FB6F8944E
:101DD000DEBF0FBECDBFDF91CF911F910F91FF905E
:101DE000EF90089520910B018AE0289F9001112423
:101DF0002417350708F0BDCF9F5F9093E80102C01C
:101E00009F3FD1F7EE2059F00E940F0D9FEF1E1457
:101E10000CF491E0899F802D11248093EC01FF2028
:101E200059F00E940F0D9FEF1F140CF491E0899F51
:101E3000802D11248093ED013091EC01332309F4BE
:101E400098CF2091ED01222309F493CF45EB340381
:101E5000C0011124992359F09093EC0145EB240320
:101E600090011124332339F03093ED0182CF81E0CA
:101E70008093EC01F3CF81E08093ED017ACF209144
:101E800007018AE0289F900111242417350708F0E4
:101E900085CF9F5F9093E70102C09F3FD1F700235A
:101EA00059F00E94590D9FEF10160CF491E0899F94
:101EB000802D11248093EE01112359F00E94590DB9
:101EC0009FEF11160CF491E0899F802D11248093CF
:101ED000EF013091EE01332309F460CF2091EF013F
:101EE000222309F45BCF45EB3403C001112499236D
:101EF00059F09093EE0145EB240390011124332314
:101F000039F03093EF014ACF81E08093EE01F3CFB7
:101F100081E08093EF0142CF86E0EAEEF1E0DF015D
:101F20001D928A95E9F71092E8011092E70110924C
:101F3000E9010895EF92FF920F931F93CF93DF93E0
:101F4000EB01E82FD11110C0442321F0F0E0EA5852
:101F5000F34FE4916E2F7E2F8E2FDF91CF911F9143
:101F60000F91FF90EF9008950D2F10E0282F30E093
:101F7000442329F02A58334FF901249130E0F6E048
:101F8000CF9FC0011124EFEFF0E0BF010E94463265
:101F9000AB018C2F90E0880F991FA5E5A49FB0019D
:101FA000A59F700D1124861B970B982F990F980FE2
:101FB000BF01601B710B629FD001639FB00D729FC8
:101FC000B00D11248B2F9D9FB0011124672F77270F
:101FD000EF01C61BD70BBE01629FE001639FD00DCE
:101FE000729FD00D11247F01E91AF108E09EB00123
:101FF000E19E700DF09E700D1124672F7727E61B70
:10200000F70BE29F8001E39F100DF29F100D11244A
:10201000E12F722F4230510599F048F441155105D6
:1020200069F04130510581F0EB2F8D2F07C044300E
:10203000510569F080F046305105B1F76E2F8DCF14
:10204000E22F7B2F812FFACFE22F7D2FF7CFEB2FBF
:10205000822F712FF3CF7B2F822FED2FEFCF41E017
:102060000C949A0F08950C942F10CF93DF93762F32
:10207000E901682F842F0E943310798368838A8353
:10208000DF91CF91089580918D04982F9E7F29F440
:102090008170826080938D0408958635E8F38170A5
:1020A0008465F8CF88E090E00C945B33CF92DF92A8
:1020B000EF92FF926B017C010E944310B701A601D1
:1020C00088E090E0FF90EF90DF90CF900C94793310
:1020D00060918D0470918E0480918F049091900492
:1020E0000C945610EDE8F4E083E0808311828FEFCA
:1020F00082838383148260817181828193810C94B5
:10210000561080918D0480FF02C08695089580E06E
:10211000089590919104933018F49F5F90939104E7
:10212000882351F060918D0470918E0480918F040A
:10213000909190040C945610089581E00C948910AD
:1021400090919104992319F09150909391048823D0
:1021500051F060918D0470918E0480918F04909164
:1021600090040C945610089581E00C94A010809176
:102170009104089580939104662351F060918D0439
:1021800070918E0480918F04909190040C9456105D
:10219000089560E00C94BA1080918E0408958091A7
:1021A0008F04089580919004089570E00C94631753
:1021B0006091100180918D0480FF0AC080910F0111
:1021C00023E0829FC00111248E569B4F0C94D510A2
:1021D000809111019091120123E0829FF00111245E
:1021E000EE56FB4F891750F71182108212828F5FD3
:1021F0003396F8CF90918D0490FF14C09091110107
:102200002091120133E0939FF0011124EE56FB4F11
:10221000921710F00C94D8108183608342839F5FE3
:102220003396F6CF0895CF93DF9300D00F92CDB7BA
:10223000DEB790918D0490FF0AC09E012F5F3F4F43
:102240000E9435104B8169818A810E94FA100F909B
:102250000F900F90DF91CF910895CF93DF93EC0112
:10226000EC81F0E0EF58F44F4491EDE8F4E0628146
:1022700081810E9413118C818F5F8C83DF91CF91BC
:102280000895CF93DF93EC01EDE8F4E043816281A0
:102290008C810E9413118C818F5F8C83DF91CF9191
:1022A00008950F931F93CF93DF9300D00F92CDB774
:1022B000DEB78C018091F00181110AC09E012F5F71
:1022C0003F4F4FEF6FEF0E9435108A818093F001EE
:1022D000F8016481613069F08091F00140E066238B
:1022E00061F040E0623011F44091F00180E060E084
:1022F00004C06091F00140E080E00E94FA10F80113
:10230000848190E0019663E070E00E945A328483F9
:102310000F900F900F90DF91CF911F910F91089523
:10232000AF92BF92CF92DF92EF92FF920F931F93E3
:10233000CF93DF9300D00F92CDB7DEB7182FF62ED4
:10234000042FE22E90918D0490FF29C0E92FE6958D
:10235000AE2FB0E0AE58BE4F8C9180939E039E7F0F
:10236000923059F59E012F5F3F4F812F0E9435100B
:102370004B8169818A810E94FA1010938E04F09239
:102380008F0400939004EE2051F060918D047091C1
:102390008E0480918F04909190040E9456100F90AB
:1023A0000F900F90DF91CF911F910F91FF90EF90C1
:1023B000DF90CF90BF90AF900895823019F40091D4
:1023C0009004DBCF863019F410918E04D6CF89307B
:1023D000D9F3893191F6E9518E2F8170D82EE69587
:1023E000F0E0EF58F34FA590B490C12CBB2460915E
:1023F0001301C61618F00E94D810BFCF2C2D30E064
:10240000A29EC001A39E900DB29E900D112470E07B
:102410000E944632812FD11013C0860F40911101C6
:10242000420F532F511D9A01220F331F240F351FC6
:102430002E563B4F402F6F2D0E943510C394D7CF9F
:10244000861BECCFEDE8F4E09181282F4381628177
:1024500088E0890F0C94901181E00C942212EDE831
:10246000F4E09181282F4381628188EF890F0C94D9
:10247000901181E00C942F12EDE8F4E0628128E0E5
:10248000620F08F46FEF282F438181810C94901123
:1024900081E00C943C12EDE8F4E0628128E0621BDC
:1024A00008F460E0282F438181810C94901181E031
:1024B0000C944B12EDE8F4E0438128E0420F08F45D
:1024C0004FEF282F628181810C94901181E00C9450
:1024D0005A12EDE8F4E0438128E0421B08F440E0A2
:1024E000282F628181810C94901181E00C946912F3
:1024F00020E00C949011EF92FF921F93CF93DF9303
:10250000EC0110E0EE24EA94F12C6091130116170F
:1025100070F00E94D8109A818C8190FF27C08F5F45
:102520008C83DF91CF911F91FF90EF9008952091C0
:102530001101422F410F5527551FCA019A01220F41
:10254000331F280F391F2E563B4F70E0C7010E94E2
:102550005A32962F8C814091900460918F04199F7C
:10256000800D11240E9435101F5FCFCF8150D8CF2E
:10257000AF92BF92CF92DF92EF92FF920F931F9391
:10258000CF93DF93FC0182810FEF80FF01E010E029
:1025900044E5A42E809113011817C8F00E94D810AA
:1025A0008091F201013009F055C0811102C0809183
:1025B000130181508093F201DF91CF911F910F9110
:1025C000FF90EF90DF90CF90BF90AF900895C091B3
:1025D0001101C12ED12CCC0DDD2DD11DCE01880FC6
:1025E000991FC80FD91FCE56DB4F198218821A8245
:1025F00034E0E32EF12CB12C8091F2018B0D853566
:102600001CF16A2D0E943832892F082E000C990B7C
:10261000C816D90691F4809190048E9DA0018F9DDB
:10262000500D112455954795559547959E016091FC
:102630008F0480918E040E943510B00EF1E0EF1AE5
:10264000F108D1F61F5FA6CF87FFDFCF909113016E
:10265000890FDBCF90E001966091130170E00E943A
:102660005A32A8CF0F931F93CF93DF93809111011C
:102670009091120123E0829FF0011124EE56FB4F4E
:10268000891740F1C0E0D3E060911301C61740F113
:102690000E94D81020910D018091F101820F80934A
:1026A000F10190910E01920F90930E01191654F4BE
:1026B000082E000C990B409113014150550B8417C3
:1026C00095071CF0219520930D01DF91CF911F916B
:1026D0000F9108951182108212828F5F3396D0CFAE
:1026E0000C2F10E070E0C8010E945A3220911101B5
:1026F000820F482F50E02091F101022E000C330B85
:1027000002171307BCF020910E01022E000C330BB0
:10271000201731077CF08D9F900111242E563B4FDE
:102720004091900460918F0480918E040E94351036
:10273000CF5FAACFFA01EE0FFF1FE40FF51FEE5691
:10274000FB4F118210821282F3CF8F929F92AF9231
:10275000BF92CF92DF92EF92FF920F931F93CF938E
:10276000DF93EC014C81042F10E09801D8010E9406
:10277000A5329B01AC010E94BB324B015C01E0E23F
:10278000F0E0E01BF10BA5E5B0E0AC019B010E947D
:10279000BB326B017C019F01DF010E949D329B01D6
:1027A000AC010E94C6329B01AC01280D391D4A1DA7
:1027B0005B1DC701B6010E946E32F22E822F90E09F
:1027C00039E23F1560F143E0249F900111243595D3
:1027D0002795122F109500E085E5E82EEF188091DF
:1027E0001301081758F10E94D8109C8181E09923A9
:1027F00019F0903219F48FEF80930C0180910C0145
:10280000890F8C83DF91CF911F910F91FF90EF90F3
:10281000DF90CF90BF90AF909F908F90089525E567
:1028200030E0B901681B790B9B01220F331F260F83
:10283000371F37FFCCCF2F5F3F4FC9CF8E2D01FD04
:102840008F2D20911101622F600F7727771F9B0139
:10285000220F331F260F371F2E563B4F412F6091FB
:102860008F040E9435100F5FBACF0F931F93CF9341
:10287000DF93EC0110E000E0909113019017110636
:1028800009F06CF40E94D8108C8190E00196817060
:1028900099278C83DF91CF911F910F9108952091FB
:1028A0001101A801420F511D9A01220F331F240F5D
:1028B000351F2E563B4F4C8160918F0480918E04C2
:1028C00096959017110651F04CF0442349F0409131
:1028D00090040E9435100F5F1F4FCECF4423B9F3F1
:1028E00040E0F7CF4F925F926F927F928F929F92CC
:1028F000AF92BF92CF92DF92EF92FF920F931F930E
:10290000CF93DF93FC016280448081E08483E1E720
:10291000FBE07490E0EFFBE0E491812C75E0972EF2
:10292000F2E0CF2EDD24D394AA24AA94B12C55240E
:102930005A94E7190E2F10E080911301881690F039
:10294000DF91CF911F910F91FF90EF90DF90CF908B
:10295000BF90AF909F908F907F906F905F904F90BF
:102960000C94D810E82CF12C82E0861568F09E9C1F
:10297000F0019F9CF00D1124ED50FE4F80918E04CC
:10298000808380918F048183411023C09E9CF0013D
:102990009F9CF00D1124ED50FE4F13821282209166
:1029A0001101C701820F911D9C01220F331F280FB7
:1029B000391F2E563B4F9E9CF0019F9CF00D112419
:1029C000ED50FE4F4281618180810E9435108394D9
:1029D000B3CF9E9CE0019F9CD00D1124CD50DE4FC3
:1029E0008B818823E9F081508B83859DC001112460
:1029F0006C8170E00E944632FB01FF27EF58F44FD4
:102A00008491E82FE719E59DC0011124B8010E94C7
:102A1000463280919004689FB00111247A83BFCF21
:102A20000E94363320919004269521582C9DA001B8
:102A30002D9D500D1124452F5527841795070CF017
:102A4000AECF82E0861588F40E943633B5010E942D
:102A50005A3288830E94363320918F042695622F44
:102A600070E00E945A32280F29839E9CF0019F9C9F
:102A7000F00D1124ED50FE4F128280919004893C9C
:102A800058F088EC9E9CF0019F9CF00D1124ED50B5
:102A9000FE4F8483838383CF8431A0F784E1F2CF18
:102AA000EDE8F4E080818E7F808360817181828196
:102AB00093810E94561010929F032FEF80E792E0BF
:102AC000215080409040E1F700C000000C94D810E5
:102AD000EDE8F4E080818E7F808310929F032FEFDA
:102AE00080E792E0215080409040E1F700C0000074
:102AF0000C94D81060918D04669570E04BE050E026
:102B000084E191E00E944633892B19F481E080939F
:102B10009F030E940C2A9093980380939703089533
:102B200090918D0490FF35C09170811128C0926002
:102B300090938D04662351F060918D0470918E0402
:102B400080918F04909190040E94561060918D04A2
:102B5000669570E04BE050E084E191E00E944633DE
:102B6000892BA1F010929F0381E080939A034091FA
:102B7000900460918F0480918E040C9478128B32B3
:102B800010F09465D5CF880F982BD2CF0E947A157C
:102B9000EBCF0895682F90918D04969581E0890F71
:102BA0008B3208F081E00C94901581E00C94CA15EA
:102BB000682F90918D0496958FEF890F09F48AE222
:102BC0000C94901581E00C94D81561E00C9490154C
:102BD000EDE8F4E080818160808386950C94E515B2
:102BE00080918D0480FD0C9450150C94E81560E0E4
:102BF0000C94901580919D0381112EC00E94222873
:102C0000811104C00E94C6280E9472100E945210B6
:102C100060938D0470938E0480938F04909390043E
:102C20006E7F61F40E9472100E94521060938D04B6
:102C300070938E0480938F04909390040E944310AD
:102C400010929F0380918D0480FF03C086950E949F
:102C5000F71581E080939D030895EDE8F4E080810D
:102C60008160808386950C94F7150F931F93CF9303
:102C7000DF9380919F03882309F496C080919E037F
:102C8000E0918D04E695E81BE0939903823091F57D
:102C9000F0E0E359F44FE491CE2FD0E00DE211E1E2
:102CA00080919A03882361F010929A030E940C2A63
:102CB000909398038093970310929C0310929B0328
:102CC0000E940C2AE0919703F09198038E1B9F0BB2
:102CD0008F3F9F4708F068C0EC0FFD1FF0939803EB
:102CE000E093970387E993E0F801DF91CF911F917B
:102CF0000F910994863049F4F0E0E659F44FE491DD
:102D0000CE2FD0E001E411E1CBCF893051F4E6952C
:102D1000F0E0E959F44FE491CE2FD0E00BE712E157
:102D2000BFCF8F3051F4E695F0E0EC59F44FE491C9
:102D3000CE2FD0E008EB12E1B3CF853149F4F0E0BB
:102D4000EF59F44FE491CE2FD0E002E313E1A8CF86
:102D5000C8E2D0E005EA13E1883109F4A1CF83325B
:102D600039F4EFE5FBE0C591D49101E511E198CF8D
:102D7000C4EFD1E005E314E1843209F491CFC0ED52
:102D8000D7E002E310E1853209F08ACF8E2F63E0AD
:102D90000E942C32E92FF0E0E45AF44FE491CE2F58
:102DA000D0E002E714E17CCFDF91CF911F910F912A
:102DB0000895FA01811101C0FB010994CF93DF93BB
:102DC000C82FD62F0E9481108C1740F00E948110CE
:102DD0008D1720F4DF91CF910C94D5158C2FDF91B6
:102DE000CF910C94E5150F931F93CF938C01FB01AA
:102DF000C281CC2309F465C00E946B278272F8015E
:102E0000E25CFC45E431F10538F4E454FC4C0C94EC
:102E100090320E94F015C0E08C2FCF911F910F913E
:102E2000089542EE55E165ED75E10E94D916F3CFA4
:102E300045ED55E162EE75E1F8CF49E352E16CE210
:102E400072E1F3CF4CE252E169E372E1EECF47E584
:102E500052E168E472E1E9CF48E452E167E572E1EA
:102E6000E4CF45E752E166E672E1DFCF46E652E1A4
:102E700065E772E1DACF44EB50E16DE970E1D5CF5F
:102E80004DE950E164EB70E1D0CF81E00E94E5159F
:102E9000C2CF65E082E00E94DE16BDCF68E086E02A
:102EA000FACF6EE089E0F7CF64E18FE0F4CF67E11D
:102EB00085E1F1CF88E1EACF62E289E1ECCF83E2FC
:102EC000E5CFC1E0A9CF579A4BB14F775BB15068BE
:102ED000EFB7F8949B01220F331F260F371F280FDF
:102EE000391F2817390741F4EFBF8FE594E00197A8
:102EF000F1F700C000000895DC016D91CD0178E08C
:102F00005BB9000000C067FF4BB9660F000000C04E
:102F100000C000C04BB900C07A9591F7E2CF82E2C1
:102F200090E00E945333813289F483E290E00E9462
:102F30005333843059F484E290E00E94533391E09B
:102F4000813209F090E0892F8170089580E0FCCFF4
:102F5000CF93DF93D82FCFEF8111C1E26C2F82E2A4
:102F600090E00E9467336FEFD11164E083E290E05C
:102F70000E9467336C2F84E290E0DF91CF910C9434
:102F8000673380E00E94A8170C941C28089585E2FE
:102F900090E00E945333682F70E090E080E0089545
:102FA00085E290E00C9467330E94C6170E948F1749
:102FB00081110CC060E070E0CB010E94D0170E942C
:102FC00079190E94651A81E00C94A8170895CF938F
:102FD000FB01C281CC2309F19C0122513F452031E4
:102FE000310520F582510E94751AC0E08C2FCF91D7
:102FF000089581E00E94E72543E062E081E00E94BD
:103000008908F3CF81E00E94082643E062E081E076
:103010000E948908EBCF82E0F6CF8031FFE59F0761
:1030200089F381319F45B9F3C1E0E0CF8031EFE50D
:103030009E07F9F281319F45C9F682E0DBCF2FEF81
:10304000FC0120830895CF93DF93EC0188818138C0
:10305000A9F028F4803871F0DF91CF91089582387B
:1030600081F08338C9F70E94CC1089830E94CF1069
:103070008A83F2CF0E94D2108983EECF0E94811002
:10308000FBCF0E94B710F8CFCF93DF93EC0188817C
:103090008138E1F028F4803869F0DF91CF9108950C
:1030A000823811F18338C9F70E94D210482F6A8103
:1030B000898108C0D9810E94CF10C82F0E94CC10EE
:1030C0004D2F6C2FDF91CF910C94781289810E9443
:1030D000F7158981811104C0DF91CF910C94681597
:1030E000DF91CF910C942D168981DF91CF910C94B3
:1030F000C910EF92FF920F931F93CF93DF93EC01D0
:10310000062FDC01ED91CD01E150E33108F0ADC0B7
:10311000F0E0E053FC4C0C949032198289E08A83F1
:10312000602FCE01DF91CF911F910F91FF90EF9013
:103130000C94592B8981823069F0833071F0813091
:10314000D9F40E94182A0E9496326A837B838C836A
:103150009D83E6CF0E94C717F6CF7E0110E0812F36
:103160000E94DA0BF701928383831F5FF2E0EF0E78
:10317000F11C1530A1F7D4CF602FCE010E941F188B
:10318000CFCF89818230C1F76A817B818C819D811B
:103190000E9496320E94D017C3CF4B816A818981E9
:1031A0000E944B199827892798279D838C83B8CF35
:1031B0002C813D813227232732274B816A818981E7
:1031C0000E946419ADCF0E947919AACF0E944418B9
:1031D000A7CF0E942318A4CF0E946810A1CF0E94FD
:1031E0000E1A89839DCF0E94101A98278927982745
:1031F0009A83898395CF6B8170E089819A81AE0132
:103200004C5F5F4F9827892798270E94131A88CF11
:103210006B8170E089819A81AE014C5F5F4F982786
:10322000892798270E943A1A7BCF0E94651A78CF87
:103230000E943819D6CF6B8170E089819A81AE01E6
:103240004C5F5F4F9827892798270E94B11968CF54
:103250006B8170E089819A81AE014C5F5F4F982746
:10326000892798270E94D7195BCF8FEF888358CF83
:1032700084E0089590E2699FB001112450E0440F6A
:10328000551F640F751F90EA899F600D711D1124F1
:10329000CB01869608950F931F93CF93DF930E94DF
:1032A0003A198C010E945333C82FD0E0DC2FCC2771
:1032B000C80101960E9453339E01282BC901DF915A
:1032C000CF911F910F9108950F931F93CF93DF9389
:1032D000122F032F0E943A19EC01602F0E946733CE
:1032E000612FCE010196DF91CF911F910F910C9428
:1032F0006733AF92BF92CF92DF92EF92FF921F930C
:10330000CF93DF938CEAC82E80E0D82ED0E07601F0
:10331000C0E014C0F50125913491412F6C2F8D2F01
:103320000E94641982E0A80EB11C1F5F103191F752
:1033300080E2E80EF11CCF5FC53019F0570110E0B4
:10334000E9CFDF5F80EAC80ED11CD43001F7DF91EE
:10335000CF911F91FF90EF90DF90CF90BF90AF90F3
:103360000895EF92FF920F931F93CF93DF93EC0199
:103370008A017C01E60EF71ECE018696CE15DF058A
:1033800039F4DF91CF911F910F91FF90EF90089545
:10339000C03822E0D20740F40E945333F801808302
:1033A0000F5F1F4F2196E8CFF8011082F9CFCF921F
:1033B000DF92EF92FF920F931F93CF93DF937C01E5
:1033C0006A018C01060F171FEC01CE018696C0170B
:1033D000D10749F4DF91CF911F910F91FF90EF90AA
:1033E000DF90CF900895C03822E0D20740F4FE016C
:1033F000EE19FF09EC0DFD1D60810E9467332196D7
:10340000E4CF462F843038F4753028F4603118F456
:10341000672F0C944B1990E080E0089580E10895A7
:103420008AE591E00895EF92FF920F931F93CF9357
:10343000DF93EC018A017C01E60EF71ECE018A556E
:103440009D4FCE15DF0539F4DF91CF911F910F917C
:10345000FF90EF900895CA3521E0D20740F40E9412
:103460005333F80180830F5F1F4F2196E7CFF80198
:103470001082F9CFCF92DF92EF92FF920F931F93BA
:10348000CF93DF937C016A018C01060F171FEC01BB
:10349000CE018A559D4FC017D10749F4DF91CF91D6
:1034A0001F910F91FF90EF90DF90CF900895CA3554
:1034B00021E0D20740F4FE01EE19FF09EC0DFD1DDD
:1034C00060810E9467332196E3CFCF93DF93C6EAF2
:1034D000D2E060E0CE010E9467332196C11584E0FE
:1034E000D807B9F7DF91CF910895DF92EF92FF925D
:1034F0000F931F93CF93DF9300D000D0CDB7DEB7EB
:10350000F82E8FE08F1540F08FEF93E00E94533339
:1035100006EA12E08823C1F00F900F900F900F90F1
:10352000DF91CF911F910F91FF90EF90DF90089561
:10353000011584E0180781F3C8010E9453338111FB
:1035400001C0FA940F5F1F4FF110F2CF19821A8257
:103550001B821C82DD24D39478018FEFE81AF80ACD
:10356000C8010E94533389831A828823A9F29FEFEE
:10357000980F933078F48A83D9820E5F1F4FC7016A
:103580000E9453338B83882339F2CE0101960E9427
:10359000CD09E2CF8701F9CF0F931F93CF93DF932C
:1035A000C42FD22FFC0182818823C9F04093A2034B
:1035B0000E940C2A9093A1038093A00380E28C0FB9
:1035C000883008F050C0C77081E001C0880FCA95EC
:1035D000EAF7DF91CF911F910F910C94741F109116
:1035E000A203141335C08091A0039091A1030E94FF
:1035F000242A883C910560F5C0E2CD0F1D17B9F073
:1036000080E2810F883040F4177081E001C0880F9C
:103610001A95EAF70E947B1FC83048F481E09D2F7D
:10362000977001C0880F9A95EAF70E94741F802F47
:103630000E946C1FC830B8F4D77081E001C0880FB9
:10364000DA95EAF7DF91CF911F910F910C947B1FD0
:1036500080E28C0F883038F4C77081E001C0880F99
:10366000CA95EAF7EFCFDF91CF911F910F9108959F
:103670000F939C01CB01233F4CE5340759F1A8F48B
:10368000283DFCE53F0701F1293D4CE53407D1F128
:10369000273D3C4591F406E221EE41EE67ED7CE5E5
:1036A0000E94CC1A80E00F910895253FFCE53F076A
:1036B000E9F0B0F0263F3C45F9F0FC018281882317
:1036C00039F11092A203EFCF07E225EE45EE68ED47
:1036D0007CE5E6CF06E221EE40EE63EF7CE5E0CF4D
:1036E00007E225EE44EE64EF7CE5DACF06E221EE58
:1036F00042EE65EF7CE5D4CF07E225EE46EE66EFBD
:103700007CE5CECF08E221E045EE69ED7CE5C8CF4F
:1037100081E0C9CFCF93DF93EC01FB018281882345
:1037200009F419C1C230FCE5DF07C0F1C6319CE5E0
:10373000D90730F09E012A5F3C452930310570F5EC
:103740000E9435289093930580939205C031ECE553
:10375000DE0709F4CFC008F05BC0C8308CE5D8079D
:1037600009F4B6C088F5C430ECE5DE0709F4A8C05A
:10377000C0F4C2308CE5D80709F49CC08091920552
:103780008260C330DC4509F498C080919205909125
:1037900093050E9443280E94ED2180E0DF91CF91A4
:1037A0000895809192058061C630ECE5DE0709F44A
:1037B00084C0809192058860C730DC4508F47DC0E4
:1037C00080919205806279C0CC308CE5D80709F4ED
:1037D00089C070F4809192058C60CA30ECE5DE07F8
:1037E00009F46BC008F478C0809192058E7F65C0A3
:1037F000CE308CE5D80709F479C0809192058B7F93
:10380000CF30DC4508F459C0809192058F7E55C0B9
:10381000CB3FECE5DE0709F457C030F5C3318CE54A
:10382000D80709F46FC078F4C131ECE5DE0709F47C
:1038300065C0C231DC4509F0A8CF0E94ED2180911E
:1038400092058F773AC0C5318CE5D80709F462C07C
:1038500008F476C0809193058160CA3FDC4509F089
:1038600094CF8093930591CFCF3FFCE5DF0709F418
:103870004DC088F4809193058D7FCD3F9CE5D9079D
:1038800081F3809193058E7FCE3FDC4550F380918C
:1038900093058360E6CFC130FDE5DF0709F459C029
:1038A00008F444C080E0C230DD4509F06ECF0E94CC
:1038B000C8286BCF8091920581608093920565CF77
:1038C000809192058460F9CF809193058260C9CF81
:1038D000809192058064F1CF0E94ED218091920544
:1038E0008068EBCF809192058D7FE7CF8091920524
:1038F000877FE3CF809192058F7DDFCF8091920506
:103900008F7BDBCF80919205837FD7CF809193050A
:103910008C7FA7CF8091920582FB992790F921E0B7
:10392000922790FB82F990FB83F9C7CF8091930592
:10393000982F909591708E7F892B90FB81F991CF74
:103940000E94ED2190919205892F97FB87F980586D
:10395000B4CF81E0ACCF81E021CFCF93DF93EB01F7
:1039600086319C4511F50E946B279A81992399F025
:103970008A7A91E009F490E09093A303811109C041
:1039800089E20E9446270E94B72780E0DF91CF910D
:10399000089585E3F6CF8091A303811104C089E2E5
:1039A0000E944D27F0CF85E3FBCF81E0EFCF9093CE
:1039B000A9038093A8030895E091A803F091A903B7
:1039C000309721F00190F081E02D099480E0089576
:1039D000E091A803F091A903309799F020912B0171
:1039E000222359F02091920527FF07C0DC012C917A
:1039F00011962C93119725E02C930280F381E02DF2
:103A000009940895E091A803F091A903309739F043
:103A100022E0DC012C930480F581E02D09940895C7
:103A20002091A6033091A7032817390771F09093CE
:103A3000A7038093A603E091A803F091A903309710
:103A400021F00680F781E02D099408952091A403C8
:103A50003091A5032817390771F09093A50380933F
:103A6000A403E091A803F091A903309721F000840A
:103A7000F185E02D099408950E94182A6093B903F6
:103A80007093BA038093BB039093BC036093B50318
:103A90007093B6038093B7039093B803089585B7E6
:103AA000806885BF85B7806885BF089508950895AB
:103AB0000C94561D08950C945A1D0E944F1D8AE1C6
:103AC00098E20E947B2A0E94571D0C94581D81E0A9
:103AD00008950C94671D089508950E94032A0E947A
:103AE000030C0E94D4170E94992A0E94FA150C9484
:103AF0005B1D6F927F928F929F92AF92BF92CF92F7
:103B0000DF92EF92FF920F931F93CF93DF93CDB786
:103B1000DEB72A970FB6F894DEBF0FBECDBF0E9466
:103B20006B1D0E946C1D0E94510C81110E943C1D56
:103B30003BEA832E33E0932E10E000E0A02E802F8E
:103B40000E94DA0B6C01F401619071904F016816CC
:103B5000790609F45FC08091550481FD0E94E30B52
:103B6000B12CEE24E394F12C6C247D24C3018E212E
:103B70009F21892B09F448C00E94691D8823A9F060
:103B8000BE82AF82CE20DF2081E0CD2809F480E024
:103B900088870E940C2A8160782F9A8789874E81B6
:103BA0005F8168858A850E94361E000F111FF8010B
:103BB000E555FC4F80819181E826F926F182E0826B
:103BC0000E9435160E94800E0E94DC1C9091AA0370
:103BD0008917B9F10E94DC1C8093AA032A960FB6BC
:103BE000F894DEBF0FBECDBFDF91CF911F910F9133
:103BF000FF90EF90DF90CF90BF90AF909F908F900D
:103C00007F906F900C94D609B394EE0CFF1CF0E1FA
:103C1000BF12ACCF0F5F1F4F0530110509F08ECFDB
:103C20008FEF89838A831B820E940C2A8160782F00
:103C30009D838C8349815A816B818D810E94361EC0
:103C4000BFCF2A960FB6F894DEBF0FBECDBFDF916F
:103C5000CF911F910F91FF90EF90DF90CF90BF9089
:103C6000AF909F908F907F906F900895DF92EF922A
:103C7000FF920F931F93CF93DF93CDB7DEB72B97B0
:103C80000FB6F894DEBF0FBECDBF7A878B87F42EB8
:103C9000052F162FE72ED82E61110E948B271E822A
:103CA0001D827E2DEC82DD824F2D502F612F8D2DB8
:103CB0009E812B960FB6F894DEBF0FBECDBFDF916D
:103CC000CF911F910F91FF90EF90DF900C946324A0
:103CD000FC01808191810C941827CF93C82F8823F1
:103CE00009F48BC08238C1F40E94DC1C81FD85C0C0
:103CF00089E30E9446270E94B7272FEF81EE94E0C8
:103D0000215080409040E1F700C0000089E30E940C
:103D10004D27CF910C94B7278338A1F40E94DC1C67
:103D200080FD6BC083E50E9446270E94B7272FEFD6
:103D300081EE94E0215080409040E1F700C0000007
:103D400083E5E5CF8438A1F40E94DC1C82FD55C0D8
:103D500087E40E9446270E94B7272FEF81EE94E068
:103D6000215080409040E1F700C0000087E4CFCFB1
:103D70008CEF8C0F813A90F46C2F80911F01909101
:103D800020010E94E128882329F08C2F0E944D27D2
:103D90000E94B7278C2F0E944627BBCF80E28C0F52
:103DA000883048F4C77081E001C0880FCA95EAF7EF
:103DB0000E946E27AECFEBE5EC0FE33040F4F0E06D
:103DC000E553FE4F808190E0CF910C94101DE8E503
:103DD000EC0FE73150F4F0E0EE0FFF1FE356FE4F1B
:103DE00080819181CF910C94261DC03F30F08C2FA3
:103DF0000E94920DCF910C94650ECF910895882367
:103E000009F452C0823871F40E94DC1C81FF4CC05E
:103E100089E30E9446270E94B72789E30E944D2725
:103E20000C94B727833859F40E94DC1C80FF3CC0F7
:103E300083E50E9446270E94B72783E5EFCF8438A9
:103E400059F40E94DC1C82FF2FC087E40E944627A1
:103E50000E94B72787E4E2CF9CEF980F913AF0F2E7
:103E600090E2980F983050F4877091E001C0990F5C
:103E70008A95EAF7892F0E947427D2CF9BE5980F85
:103E8000933020F490E080E00C94101D98E5980F9A
:103E9000973120F490E080E00C94261D803F20F0C4
:103EA0000E94EC0D0C94650E08951F93CF93DF9341
:103EB000182FEB010E946D1E209731F4812FDF91A6
:103EC000CF911F910C94FF1E8FE99FE00197F1F7AE
:103ED00000C000002197F0CF70E060E0893311F45A
:103EE00060E570E00C94551F882321F00E946E2736
:103EF0000C94B7270895882321F00E9474270C940E
:103F0000B7270895BF92CF92DF92EF92FF920F935F
:103F10001F93CF93DF936C01D62FC72FFC01128123
:103F2000058102950F700E946427E82E8823A1F076
:103F3000E12E112389F08C2F807F803429F080E2DC
:103F40008D0FE12C883040F082E00E9402280E9410
:103F5000642791E0E82EE926BC2EB2949FE0B922B6
:103F6000EB2DF0E0ED51FC4C0C9490320C2F0F70C7
:103F7000C07F11F00295007F1123A9F0002359F0B2
:103F800080E28D0F883010F0D11109C0802F0E947F
:103F90006E270E94B7278D2F0E946D1E14C0802FA0
:103FA0000E947E27F6CF8D2F0E94FF1E002359F01E
:103FB00080E28D0F883010F0D1112CC0802F0E942C
:103FC00074270E94B7272B2D2850330B243031053E
:103FD00020F40E94DC1C0E94D609EE2009F49EC148
:103FE0000E94602780FD9AC1F60112820E945A2722
:103FF0000E94E725C6010E94AF210E945A27DF9147
:10400000CF911F910F91FF90EF90DF90CF90BF90D5
:104010000C940826802F0E948427D3CFFC2FFF709A
:10402000FF2EC07FC03219F0F29480EFF822DD231A
:1040300069F0D13049F1112391F1002351F1F601DA
:10404000858180FFA8CF8F70858323C0112381F0E5
:10405000011106C00E949E278F290E94741FB3CFB2
:104060000130C1F70E949E278F290E94A427ABCF61
:10407000011106C00E94AD278F2D0E947B1FA3CF88
:10408000013009F4A0CFF6CF112329F0063008F053
:104090009ACF8F2DE2CF053008F095CFEDCF0023DA
:1040A00059F3D93349F4FFEF27EE33E0F1502040C4
:1040B0003040E1F700C000008D2F0E94FF1E83CF2B
:1040C0008C2F86958695837069F0813009F07BCFBF
:1040D0008D2F9C2F9370111102C090E080E00E9400
:1040E000261D71CF8D2F9C2F9370111102C090E06F
:1040F00080E00E94101D67CF8D2F112329F00E94B0
:10410000920D0E94650E5FCF0E94EC0DFACF8C2FAE
:10411000837009F041C0111156CF4D2F429546953D
:104120004770440F440F0D2F0F7010E030E020E077
:10413000042E04C0000F111F221F331F0A94D2F750
:1041400060E070E0CB01D4FF0FC06FE070E080E072
:1041500090E004C0660F771F881F991F4A95D2F719
:104160006095709580959095C695C695C370602BA7
:10417000712B822B932BC23049F058F4C13019F0C7
:104180000E94992520CF0E9487251DCF0E94AB2534
:104190001ACF0E94852517CF8695112311F08C2FF9
:1041A0008170882309F40FCF4D2F429546954770B3
:1041B000440F440F0D2F0F7010E030E020E0042E6C
:1041C00004C0000F111F221F331F0A94D2F760E0B2
:1041D00070E0CB01D4FF0FC06FE070E080E090E0B2
:1041E00004C0660F771F881F991F4A95D2F7609504
:1041F000709580959095C695C695C370602B712B70
:10420000822B932BC23049F058F4C13019F00E9430
:104210005E26D9CE0E944C26D6CE0E947026D3CEE2
:104220000E94C125D0CECF70112329F08C2F0E947F
:10423000E7258D2F12CF8D2F0E947B1F8C2F0E9480
:104240000826C1CED23F89F160F4D03FC9F0D13FFA
:1042500029F1112309F442C001119DCE8C2F8F71D9
:1042600021C0D33F39F1D43FA1F7112369F1CF71B8
:104270008C2F0E94E72563E08C2F0E94ED27A3CEB0
:10428000112341F0053008F09ECE8C2F8F710E94D3
:104290002B2699CE063008F096CEF7CF8C2F8F7153
:1042A000112369F20E94E7258ECE8C2F8F71112386
:1042B000C9F3C5CF112329F08C2F8F710E94D2250D
:1042C00082CE0E94CD257FCE81E00E94022802305E
:1042D00008F479CE82E00E94022875CE002359F0BE
:1042E000D93309F0E9CE8FEF97EEE3E081509040AB
:1042F000E040E1F7DFCE8C2F8F71A1CF4C2F4F70B4
:104300006D2FC6010E94DF070E94FD245CCE4C2F5A
:104310004F706D2FC6010E94DE0955CEDF91CF91FF
:104320001F910F91FF90EF90DF90CF90BF90089575
:104330000F931F93CF93DF93EC01688179818A817A
:104340000E9422278C010E9482260E948425B801A7
:10435000CE01DF91CF911F910F910C94821FCF93CB
:10436000DF93EC018B819C81892B29F088819981D5
:1043700089238F3F59F4DF91CF910895CE010E9498
:104380009821CE01DF91CF910C942A08CE010E9492
:10439000B7088111F3CF0E946427882361F38A81D3
:1043A000882349F382E0DF91CF910C94022890E0BA
:1043B00080E00E94101D90E080E00E94261D0E9477
:1043C0008B270E949B270E94B7270E948C0F0C947A
:1043D000650E0E9454270C94D7210E947B270C94D1
:1043E000E921E92FE295EF70E250EE3070F4F0E051
:1043F000ED50FC4C0C949032803F19F020F4883E34
:1044000020F481E00895843FE1F380E00895883E40
:10441000C0F3813FD1F7F5CF93FB882780F908954A
:104420000E9418270C94F121CF93DF9300D000D085
:104430000F92CDB7DEB70F900F900F900F900F90A7
:10444000DF91CF910895CF93DF9300D000D000D0BB
:10445000CDB7DEB726960FB6F894DEBF0FBECDBF40
:10446000DF91CF9108951F93CF93DF93C091BE0347
:1044700016E08091BF038C1304C0DF91CF911F9190
:104480000895D0E01C9FF0011D9FF00D1124E05411
:10449000FC4F4081518162817381848195810E94AA
:1044A00023222196C770E5CF4091F0035091F1038C
:1044B0006091F2037091F3038091F4039091F503FE
:1044C0000C9423221F93CF93DF938091F503807F79
:1044D000A9F48091F203882389F08091BE03C091F2
:1044E000BF036091F0037091F103A091F303B091C9
:1044F000F403D62FD72316E0C81304C0DF91CF9161
:104500001F91089590E0109711F0DF3F19F4019684
:104510008770F2CF189F9001199F300D1124F90177
:10452000E054FC4F41814713F2CF40814613EFCF57
:1045300042814111ECCF438154814A1B5B0B483CC3
:10454000510528F78091F5038F7080618093F50302
:10455000F901EB53FC4F80818F708061808380EF85
:1045600093E00E94AF21DF91CF911F910C943322F1
:10457000AF92BF92CF92DF92EF92FF920F931F9371
:10458000CF93DF93CDB7DEB761970FB6F894DEBF58
:104590000FBECDBF8C0185E0F801DE011D960190B4
:1045A0000D928A95E1F7F80140815181E28080EF18
:1045B000C82E83E0D82E6091F3037091F403611547
:1045C000710509F461C19091F0032091F103892FE5
:1045D00082238F3F09F458C1A380B480F090F20386
:1045E000F501E61BF70BFF2009F4FCC08091F503F1
:1045F000382F307FE83CF10508F0B2C0311179C0A6
:10460000FE2C251323C0941321C0E1101FC08F700E
:1046100080618093F5030E945422C6010E94AF215D
:104620008091F503F80185838F2D61960FB6F8947C
:10463000DEBF0FBECDBFDF91CF911F910F91FF90D5
:10464000EF90DF90CF90BF90AF900895AB2829F006
:10465000842F85238F3F09F033C180E0F82FF1705C
:10466000DF2E80FF3CC08091BE032091BF0336E067
:10467000821315C04D875E878D859E850E94182701
:10468000292F22952F702230F0F0243018F59F70DA
:10469000F1F0F8019581907FD1F4D12C1EC090E00B
:1046A000389FF001399FF00D1124E054FC4F6181D7
:1046B000651306C06081641303C062816E110FC070
:1046C00001968770D5CF9F7011F0882331F3805EFB
:1046D000883018F3C8010E94AF21FD2CA5CFEE2031
:1046E00009F4A2CF8091F50381608093F503F12C4A
:1046F0009BCF251306C0941304C0F801EE2009F4E3
:104700008DC04D875E878D859E850E9410228823EF
:1047100019F1EE2009F18091F503803270F02091BB
:10472000F0033091F10338872F831986BB86AA8660
:104730008C87CE0107960E94AF2186E0F801A0EF9A
:10474000B3E001900D928A95E1F70E9462220E94E7
:104750005422FF24F39468CFC8010E94AF21F9CFFF
:10476000311113C07A2DB98AA88A6E2D89890E94C9
:10477000142280EF93E00E94AF2186E0F6011192AF
:104780008A95E9F70E945422B2CF25130FC09413E3
:104790000DC0E1100BC0F8018583C8010E94AF2154
:1047A00086E0F60111928A95E9F73ECF4D875E8744
:1047B0008D859E850E941022882371F2EE2061F281
:1047C0008091F503803208F4B8CF2091F003309146
:1047D000F1033A8329831B82BD82AC828E83CE0192
:1047E0000196A9CFE83CF10508F041C0FE2CEE206F
:1047F00009F4B2CF25132AC0941328C08091F50381
:1048000080FD1BC0982F907FC1F0F8018583903FF9
:1048100031F0982F907F905F8F70892B8583C8012E
:104820000E94AF2186E0F801A0EFB3E001900D9265
:104830008A95E1F70E945422F7CE86E0F801A0EFB6
:10484000B3E001900D928A95E1F7EECE4D875E8739
:104850008D859E850E94102281116FCF8091F50376
:1048600081608093F503C8010E94AF21DDCE7A2DCF
:10487000B98AA88A6E2D89890E94142286E0F601E1
:1048800011928A95E9F7D6CFEE2009F465CF4D87CE
:104890005E878D859E850E941022F82E882309F45C
:1048A0005BCF86E0F801A0EFB3E001900D928A950E
:1048B000E1F780EF93E00E94681E0E946222BACF67
:1048C00081E08E25CBCE1F93CF93DF93CDB7DEB79C
:1048D0002C970FB6F894DEBF0FBECDBF4F8358871D
:1048E00069877A878B879C87CE0107960E94B822BA
:1048F000882369F08A859B85892B39F04F815885FB
:10490000842F85238F3F09F071C016E05FC086E0D9
:10491000FE013796DE01119601900D928A95E1F71E
:104920008A859B85892B89F388859F8189238F3F81
:1049300061F32091BF0330E0C90101968770992788
:104940004091BE034817190671F40E94ED211092A0
:10495000BF031092BE0386E0E0EFF3E0DF011D929B
:104960008A95E9F7D2CF96E0929FD001939FB00D40
:104970001124A054BC4FFE01319601900D929A95DE
:10498000E1F78093BF030E943322BFCF819FC00114
:10499000112480549C4F0E94B8228823E9F0E091B2
:1049A000BE031E9FF0011124E054FC4F4081518151
:1049B00062817381848195810E9423228091BE034C
:1049C00090E00196877099278093BE038091BE0383
:1049D0009091BF038913DACF2C960FB6F894DEBFFF
:1049E0000FBECDBFDF91CF911F91089569857A8564
:1049F0008B859C850E94232288CFEF92FF920F9394
:104A00001F93CF93DF938C01892B81F0F12CEE243F
:104A1000E394E8012196F8018491843770F484309E
:104A200008F05FC08130B1F08230A1F1DF91CF9109
:104A30001F910F91FF90EF900895853709F44CC0B6
:104A400008F43DC09CE7980F903780F78F770E945D
:104A5000FF1E49C00E5F1F4FFE01849190E2980F28
:104A6000983060F48770FE2D01C0FF0F8A95EAF739
:104A70008F2F0E948E270E94B72702C00E946D1EB2
:104A80008F2D815030F2EFE9FFE03197F1F700C050
:104A90000000F7CF0E5F1F4FFE01849190E2980F48
:104AA000983050F48770FE2D01C0FF0F8A95EAF709
:104AB0008F2F0E949427DFCF0E94FF1EE1CF0E5F51
:104AC0001F4FFE01C491C150D8F28FE99FE00197BA
:104AD000F1F700C00000F7CF0E5F1F4FFE01F4900A
:104AE000CFCF0E946D1E8E01CBCF08950C947525FB
:104AF0000E94762560932C0470932D0480932E04DD
:104B000090932F040C94D72108950C9478250F933B
:104B10001F9300912C0410912D0420912E043091AC
:104B20002F04602B712B822B932B1F910F910C94D0
:104B300078250F931F9300912C0410912D04209140
:104B40002E0430912F0460237123822393231F911D
:104B50000F910C9478250F931F9300912C041091C2
:104B60002D0420912E0430912F0460277127822775
:104B700093271F910F910C9478250C9475250C9414
:104B8000BD250E94BF25609328047093290480935B
:104B90002A0490932B040C94D72160E070E0CB01A1
:104BA0000C94C1250F931F9341E050E060E070E04A
:104BB0008A019B0104C0000F111F221F331F8A9519
:104BC000D2F7C901B8011F910F910C94C1250F9321
:104BD0001F9341E050E060E070E004C0440F551FB7
:104BE000661F771F8A95D2F7809128049091290437
:104BF000A0912A04B0912B048A019B01082B192B48
:104C00002A2B3B2BC901B8011F910F910C94C12590
:104C10000F931F9341E050E060E070E004C0440F48
:104C2000551F661F771F8A95D2F7CB01BA01609591
:104C300070958095909500912804109129042091F9
:104C40002A0430912B0460237123822393231F9124
:104C50000F910C94C1250F931F9341E050E060E049
:104C600070E004C0440F551F661F771F8A95D2F766
:104C70008091280490912904A0912A04B0912B04DA
:104C80008A019B01082719272A273B27C901B80158
:104C90001F910F910C94C1250F931F93009128042D
:104CA0001091290420912A0430912B04602B712B40
:104CB000822B932B1F910F910C94C1250F931F935F
:104CC000009128041091290420912A0430912B048A
:104CD00060237123822393231F910F910C94C1258C
:104CE0000F931F93009128041091290420912A0406
:104CF00030912B0460277127822793271F910F91F2
:104D00000C94C12508959295907F890F982F9770E4
:104D100041E001C0440F9A95EAF7869586958695FD
:104D200095E0899FF0011124EA50FC4F30E020E02B
:104D300070E05191DF011197CB01022E02C09695D0
:104D400087950A94E2F781708195852784238527CA
:104D50008C932F5F3F4F2530310559F70895929579
:104D6000907F890F982F977086958695869525E078
:104D7000829FF0011124EA50FC4F50E040E080E0B7
:104D8000219130E0092E02C0369527950A94E2F76A
:104D900021703327042E01C0220F0A94EAF7822BD8
:104DA0004F5F5F4F4530510559F70895BF92CF923D
:104DB000DF92EF92FF920F931F93CF93DF938C01BB
:104DC000C0902804D0902904E0902A04F0902B048D
:104DD00080912C0490912D04A0912E04B0912F0469
:104DE000C82AD92AEA2AFB2ACFE1D0E0BC2ED70173
:104DF000C6010C2E04C0B695A795979587950A9481
:104E0000D2F780FD0EC0219788F7B12C8B2DDF9152
:104E1000CF911F910F91FF90EF90DF90CF90BF90B7
:104E20000895B8018C2F0E94E709019761F3EECF36
:104E3000CF93DF93EC010E94D626BE01DF91CF9184
:104E40000C94E7091F93CF93DF93EB019091BD037F
:104E5000992331F0CB01DF91CF911F910C9418274A
:104E6000882379F0CB010E94D626182F682FCE0117
:104E70000E948326BE01812FDF91CF911F910C9458
:104E8000E709CB010E94AF26182FF4CF682F80913D
:104E90001F01909120010C946129682F80911F01BE
:104EA000909120010C946C2980911F019091200118
:104EB0000C94772980913004859585958595089582
:104EC000809130048770089590913004977081E04C
:104ED00009F480E008958091540408959091540459
:104EE000892B8093540408958095909154049823BD
:104EF000909354040895109254040895909153048B
:104F0000892B80935304089580959091530498239E
:104F1000909353040895109253040895909152046D
:104F2000892B809352040895809590915204982380
:104F30009093520408951092520408958091310480
:104F4000089508950C94A12790913104981721F0A9
:104F5000809331040C94A227089580913104882312
:104F600029F01092310480E00C94A2270895E0917A
:104F70001F01F0912001809154048083E0911F0172
:104F8000F0912001808190915304892B8083E091DE
:104F90001F01F0912001808190915204892B808320
:104FA00090913104992381F0E0911F01F09120014B
:104FB0008081892B808380911F01909120010E9424
:104FC000CD2881110E94AD2780911F019091200171
:104FD0000C94E81C08950C94EA2798E0899F9001AE
:104FE0001124622B609330040E94E72580913004E5
:104FF0008595859585950C94EB271092300480E07B
:105000000C94EB2790913004809589238093300491
:10501000282F277071F4282F082E000C330B9217BD
:10502000130639F08595859585950E9408260C9480
:10503000FD27089580E008956FEF7FEF90E080E016
:105040000C94853390E080E00E94613321E08B3E38
:105050009E4F09F020E0822F089582E090E00C94AA
:10506000533383E090E00C945333CF9384E090E08B
:105070000E945333C82F81E290E00E945333982F4F
:105080008C2FCF910895CF93C92F682F84E090E0A3
:105090000E9467336C2F81E290E0CF910C946733CC
:1050A000AB01BC018FE090E00C947933AB01BC0103
:1050B00083E190E00C94793360E070E0CB010C94D4
:1050C000562860E070E0CB010E9450280C945C28C8
:1050D0006BEE7EEF90E080E00E94853360E082E03E
:1050E00090E00E94673360E083E090E00E946733C5
:1050F00010922C0410922D0410922E0410922F0462
:1051000060E084E090E00E94673360E081E290E03C
:105110000E94673360E085E090E00E94673360E0C2
:1051200086E090E00E9467336FEF87E090E00E9496
:10513000673340E050E0BA0188E090E00E947933A4
:1051400060E08DE090E00E94673340E050E0BA01FB
:1051500088E190E00E94793360E087E190E00E946E
:10516000673340E050E0BA018CE190E00E9479336F
:1051700060E080E290E00E94673340E050E0BA01D6
:1051800088E190E00E9479330C9461280C9468289F
:10519000682F8EE090E00C946733FC01329680918A
:1051A0002B01882321F0809192059EE187FF96E0F4
:1051B00080E0915008F4089521912223D1F38F5F6C
:1051C000F8CF662301F120912B012223F1F02091E9
:1051D000920527FF1AC0462F4695469546954E31B3
:1051E00090F4677021E030E002C0220F331F6A950F
:1051F000E2F7840F911DFC01828190E0282339237E
:1052000081E0232B69F480E00895FC013296089632
:105210002191261721F0E817F907D1F7F4CF81E0A3
:1052200008959C01FC0132969FEF80E04191461762
:1052300051F09F3F19F4411101C0982F8F5F8630C4
:10524000A9F79F3F09F40895290F311D97FD3A955D
:10525000F90162830895FC01329608962191261384
:1052600003C0DF0111971C92E817F907B9F70895F9
:10527000E62FE695E695E695EE3168F4E80FF92F0E
:10528000F11D677021E030E001C0220F6A95EAF756
:105290008281822B82830895E62FE695E695E69536
:1052A000EE3170F4E80FF92FF11D677021E030E066
:1052B00001C0220F6A95EAF7209582812823228374
:1052C000089520912B01222329F02091920527FD9A
:1052D0000C9438290C94112920912B01222329F0B8
:1052E0002091920527FD0C944C290C942B29FC014C
:1052F000329680912B01882351F08091920587FF8F
:1053000006C08EE1DF011D928A95E9F7089586E0D7
:10531000F9CF089508950C948A29809198058430D6
:1053200049F10E948B2980E00E94D6091092560410
:1053300088E190E020E40FB6F894A895809360008F
:105340000FBE2093600083B7817F846083BF83B7E3
:10535000816083BF7894889583B78E7F83BF0FB6B3
:10536000F894A89580916000886180936000109205
:1053700060000FBE08950895CF930E9489290E946E
:10538000510C0E94BB29C0E08C2F0E94DA0B892BA4
:1053900031F4CF5FC530C1F780E0CF91089581E04F
:1053A000FCCF08950C94D1290E94ED210E94DC1CB1
:1053B0000E94D6090C94D2291F921FB61F92112465
:1053C0008F939F93AF93BF9380915604811113C025
:1053D00080918E0590918F05A0919005B0919105D7
:1053E0004196A11DB11D80938E0590938F05A093CA
:1053F0009005B0939105BF91AF919F918F911F90B0
:105400001FBE1F90189582E084BD93E095BD9AEF72
:1054100097BD80936E0008952FB7F89480918E0504
:1054200090918F05A0919005B09191052FBF08959F
:105430002FB7F89460918E0570918F05809190053B
:10544000909191052FBF08959C014FB7F8948091DA
:105450008E0590918F05A0919005B09191054FBF59
:10546000821B930B089578941F921FB61F921124EC
:105470008F939F93AF93BF9380918E0590918F05EB
:10548000A0919005B09191050196A11DB11D809349
:105490008E0590938F05A0939005B0939105BF91D1
:1054A000AF919F918F911F901FBE1F90189581E023
:1054B0008093E00080E28093D8001092C9008FE1D1
:1054C0009EE40197F1F700C0000087E090EBDC015B
:1054D0008093A1059093A205A093A305B093A40582
:1054E00088E19CE00FB6F894A895809360000FBE09
:1054F00090936000FFCF9093DF018093DE010895C9
:105500000C94C1170E94510C2FEF86E791E02150B7
:1055100080409040E1F700C000000E94510C80E004
:105520000E94DA0B80FF04C00E94802A0C94572A44
:1055300008950E942228811102C00E94C6280E945C
:105540002D28809355040E943528909393058093CD
:1055500092050E943128682F70E090E080E00E9460
:105560008525609128047091290480912A049091E6
:105570002B040C94BF25809177040895CF93DF937B
:1055800000D00F92CDB7DEB790919805943011F509
:1055900089837B836A839093E9008FEF9091E80081
:1055A000815095FD06C095ED9A95F1F700008111A7
:1055B000F5CF8091E80085FF0DC050E040E063E04A
:1055C00070E0CE0101960E944C2D8091E8008E770C
:1055D0008093E8000F900F900F90DF91CF91089586
:1055E000BC0184E00C94BE2ABC0183E00C94BE2A6A
:1055F0009C0184E08093E9009FEF8091E800915046
:1056000085FD06C085ED8A95F1F700009111F5CF73
:105610008091E80085FF0CC050E040E066E070E05B
:10562000C9010E944C2D8091E8008E778093E8009C
:105630000895CF93DF93EC0180912B018823B1F182
:105640008091920587FF32C060E284E08093E90098
:105650008FEF9091E800815095FD06C095ED9A95E9
:10566000F1F700008111F5CF8091E80085FF1BC0A4
:1056700080912B0170E050E040E0811104C050E0C7
:1056800040E068E070E0CE010E944C2D8091E8007F
:105690008E778093E80080E2FE01A7E5B4E00190F8
:1056A0000D928A95E1F7DF91CF91089568E081E04E
:1056B000CDCFCF93FC01603221F5809198058430E5
:1056C00001F5C091E900CF702091EC00922F91700C
:1056D00020FD90E8C92B82E08093E9008091E800EA
:1056E00080FF0CC050E040E060E270E0CF010E941B
:1056F0004C2D8091E8008E778093E800CF70C093A6
:10570000E900CF91089580919705811109C00E9409
:105710002B2F0E94882F8091E20084608093E2000A
:10572000089510929705089508950895089542E008
:1057300061EC81E00E94A72E42E261EC84E00E94CD
:10574000A72E42E261EC82E00E94A72E42E260ECCA
:1057500083E00C94A72E80919A05833009F461C0F0
:1057600030F48130D1F1823009F49DC008958A303F
:1057700009F489C08B3009F46FC0893009F050C03A
:1057800080919905813209F04BC080919D059091DF
:105790009E05009719F0029709F042C08091E80039
:1057A000877F8093E8008091E80082FF35C0909168
:1057B000F3008091F200029729F48091F1008B7F31
:1057C000813021F48091F100809377048091E8008A
:1057D0008B778093E8000C94DB2E80919905813AB9
:1057E000F9F48091E800877F8093E80080919D051F
:1057F00090919E05892B61F460E287E594E070E06A
:105800000E94EA2D8091E8008B778093E80008954C
:1058100060E090E080E0F3CF809198058111C3CFE4
:10582000089580919905813AD9F780919D059091CD
:105830009E05892BA9F78091E800877F8093E80077
:105840008091E80080FFFCCF80912B018093F100D4
:105850008091E8008E77BDCF80919905813201F764
:1058600080919D0590919E05892BD1F68091E8004D
:10587000877F8093E8000E94DB2E80919B058093B8
:105880002B010C94ED2180919905813249F680918C
:10589000E800877F8093E8000E94DB2E80919C05C2
:1058A00080937804089580919905813A09F0B8CFE2
:1058B0008091E800877F8093E8008091E80080FF76
:1058C000FCCF80917804C2CFCDB7DEB7A0970FB6DA
:1058D000F894DEBF0FBECDBF84B7877F84BF0FB6FD
:1058E000F894A89580916000886180936000109280
:1058F00060000FBE80E890E00FB6F89480936100DE
:10590000909361000FBE0E945D1D0E942B2F0E948C
:10591000882F8091E20084608093E20078940E9456
:1059200011320E946D1D81E291E00E94D71C13E0AC
:10593000809198058530C9F00E94791D8091980565
:105940008430D1F00E946B1D0E946C1DF1CF0E942B
:105950008D2980919605882341F00E94BC298823D7
:1059600021F00E94362D0E94ED218091980585300E
:1059700071F30E94D429E0CF1093E9008091E800F0
:1059800082FFE0CF8091E80090E085FF09C050E001
:1059900040E060E270E0CE0101960E949B2D91E014
:1059A0008091E8008B778093E800992359F260E2B8
:1059B000CE0101960E947918C5CF0C94DF2C292FB7
:1059C00033272330310521F168F42130310509F402
:1059D00043C02230310509F444C090E080E030E05B
:1059E00020E026C02132310551F122323105A9F7DC
:1059F0006330710590F7FB01EE0FFF1FEF52FE4F72
:105A00002081318162537E4FFB01808190E010C084
:105A100099278130910581F0009729F00297E9F6E6
:105A2000E6E7FDE002C0E2EAFDE0849190E09F013C
:105A3000FA01318320830895EAE8FDE0F6CF633070
:105A4000710558F6660F771FFB01E952FE4F208162
:105A5000318189E090E0ECCF82E190E021E03EE00E
:105A6000E7CF8BE590E026EA3DE0E2CF80E189BD1B
:105A700082E189BD09B400FEFDCF8091D8008F7D01
:105A80008093D8008091E00082608093E000809154
:105A9000E00081FDFCCF0895AF92BF92CF92DF92DC
:105AA000FF920F931F93CF93DF936C01EB018A0159
:105AB0000E94FA2EF82E811123C00115110539F02C
:105AC000F80180819181C81BD90BC80ED91EB12C59
:105AD000A12C2097A9F08091E80085FD22C080913B
